:020000040800F2
:1000000000040020DF0100085135000853350008C6
:100010005535000857350008593500080000000024
:100020000000000000000000000000004501000882
:100030005B35000800000000890100085D350008FC
:10004000FF010008FF010008FF010008FF01000890
:10005000FF010008FF010008FF010008FF01000880
:10006000FF010008FF010008FF010008FF01000870
:10007000FF010008FF010008FF010008FF01000860
:10008000FF010008FF010008FF010008FF01000850
:10009000FF010008FF010008FF010008FF01000840
:1000A000FF010008FF010008FF010008FF01000830
:1000B000FF010008FF010008FF010008FF01000820
:1000C000FF010008FF010008FF010008FF01000810
:1000D000FF010008FF010008FF010008FF01000800
:1000E000FF010008FF010008FF010008FF010008F0
:1000F000FF010008FF010008FF010008FF010008E0
:10010000FF010008FF010008FF010008FF010008CF
:10011000FF010008FF010008FF010008FF010008BF
:10012000FF010008FF010008FF010008FF010008AF
:10013000DFF80CD003F044FA004800478B34000885
:10014000F8310020224B19680868B0E8F00F80F3FE
:100150000988BFF36F8F4FF0000080F311884EF0D5
:100160000D0E70470000000006480068006880F32C
:10017000088862B661B6BFF34F8FBFF36F8F00DFA1
:1001800000BF00BF08ED00E0EFF30980BFF36F8F01
:100190000F4B1A6820E9F00F106008B54FF05000BF
:1001A00080F31188BFF34F8FBFF36F8F01F08AFE8A
:1001B0004FF0000080F31188BDE808401968086816
:1001C000B0E8F00F80F30988BFF36F8F704700BF6E
:1001D00014000020EFF305807047000070470848C6
:1001E0008047084981F3088807480047FEE7FEE793
:1001F000FEE7FEE7FEE7FEE7FEE7FEE7FEE7FEE7D7
:10020000DD010008F8310020310100080CB50022A2
:10021000019200923448016841F4803101604FF44A
:10022000A063016801F4003100910199491C01911A
:10023000009911B901999942F3D10168890302D556
:100240000121009100E000920099012900D0FEE711
:1002500026490A6842F010020A600A6822F0030286
:100260000A600A6842F002020A604168416041681F
:100270004160416841F480614160416821F47C1132
:100280004160416841F4E8114160016841F08071CA
:10029000016001688901FCD5416821F003014160DA
:1002A000416841F0020141604168C1F381010229C6
:1002B000FAD10CBDAAE70C48016841F001010160C8
:1002C00041680B4A1140416001680A4A11400160CF
:1002D000016821F480210160416821F4FE01416040
:1002E00000218160E6E7000000100240002002408B
:1002F0000000FFF8FFFFF6FE10B5964A811A1315AD
:10030000D414904237D010DC934940181FD0984243
:1003100027D0A0424DD10121102000F05AFA00212F
:10032000BDE81040102000F054BA99422DD0A142EF
:1003300035D0B1F5406F3CD101210C02204600F0D0
:1003400048FA2046BDE81040002100F042BA0121E1
:10035000042000F03EFA0021BDE81040042000F027
:1003600038BA0121082000F034FA0021BDE810401D
:10037000082000F02EBA0121202000F02AFA0021E6
:10038000BDE81040202000F024BA0121402000F0F8
:1003900020FA0021BDE81040402000F01ABA0121E7
:1003A000802000F016FA0021BDE81040802000F007
:1003B00010BA10BD10B50121084600F00AFA00215C
:1003C000BDE81040012000F004BA2DE9F041002200
:1003D000CC7804F00F03E40601D58C7823430C7825
:1003E0004FF00F0714F0FF0F4FF0010C1CD0056801
:1003F0000CFA02F40E882640A64211D1960007FAA4
:1004000006F825EA080503FA06F848EA0505CE7855
:10041000282E02D0482E02D002E0446100E00461A0
:10042000521C082AE4D305600A88FF2A1ED94568B1
:10043000002202F108060CFA06F40E882640A642B5
:1004400010D1960007FA06F825EA080503FA06F81F
:1004500048EA0505CE78282E00D14461CE78482E92
:1004600000D10461521C082AE3D34560BDE8F08145
:100470004FF6FF710180022181700421C170704725
:100480000246002092680A4200D00120704780682E
:1004900080B2704702460020D2680A4200D0012094
:1004A0007047C06880B27047016170474161704712
:1004B000002A01D00161704741617047C1607047F7
:1004C00041F4803282618161826181698069704713
:1004D00010B5224B1A684FF68074224042EA001091
:1004E0000843186010BD1E49C8617047F0B51B4D28
:1004F0006B68C0F30342440D260184B2C0F3015778
:10050000B440032F07D0C0020CD503209040834392
:1005100043F0706209E023F07062686820F0706058
:10052000686002E0A34343F0706201B122436A6055
:10053000F0BD10B58A07120F0F23934021F003047A
:10054000064921448C689C438C608B68904003432F
:100550008B6010BD0014014000F8FEBF0000014098
:1005600000002042B348016841F001010160416888
:10057000B14A114041600168B04A11400160016810
:1005800021F480210160416821F4FE0141600021D5
:1005900081607047A7490A6822F480320A600A68BD
:1005A00022F480220A60B0F5803F07D0B0F5802F9A
:1005B00003D1086840F4A02008607047086840F440
:1005C000803008607047034600205909994A012984
:1005D0000AD002290AD0516A03F01F020123934076
:1005E0000B4200D0012070471168F5E7116AF3E76C
:1005F00018B5002000904FF4A0643120FFF7E3FF0E
:100600000099491C009110B90098A042F5D1312001
:10061000FFF7D9FF08B1012018BD002018BD854A99
:10062000116821F0F80141EAC00010607047844968
:10063000086070477F4B5A6822F47C1208431043CD
:10064000586070477E49086670477A4A516821F0C1
:1006500003010143516070477648406800F00C0088
:100660007047744A516821F0F001014351607047AE
:10067000704A516821F4E0610143516070476D4A4E
:10068000516821F4605141EAC00050607047694AE6
:10069000002903D0517A014351727047517A814346
:1006A000517270476649D83108607047614A516895
:1006B00021F440410143516070475E4900222031DE
:1006C0000A7001F82029012805D0042802D105204C
:1006D00081F820007047012081F8200070475949B7
:1006E0000860704753490A6A02430A6270475549D5
:1006F00044390860704710B54E4A516801F00C014A
:10070000514B002927D0042927D0082927D003607E
:10071000516801F0F00109094C4B5C5C0168E14053
:100720004160546804F4E064240A1C5D21FA04F476
:100730008460546804F46054E40A1B5DD940C160CD
:10074000526802F44042920B404B1B1F9A5CB1FB73
:10075000F2F1016110BD0360DAE70360D8E7516888
:1007600001F47011022303EB9141536803F48033C9
:1007700033B153689B0307D5354B59430160C7E735
:10078000334B59430160C3E72F4B59430160BFE727
:10079000284A002903D051690143516170475169CA
:1007A000814351617047234A002903D09169014375
:1007B0009161704791698143916170471D4A002999
:1007C00003D0D1690143D1617047D1698143D161BF
:1007D0007047184A002903D0D1680143D16070479F
:1007E000D1688143D1607047124A002903D0116952
:1007F00001431161704711698143116170471149CB
:100800004039086070470E49C86470470949C8718B
:1008100070470848416A41F0807141627047014663
:100820000020044A92680A4200D001207047014922
:1008300088727047001002400000FFF8FFFFF6FECC
:10084000000042428004424200127A00040000206C
:1008500000093D0010B5C64A811A131590422BD0ED
:100860000FDCC44940181CD098423BD101218C04B4
:100870002046FFF7B9FF2046BDE810400021FFF7F2
:10088000B3BF994223D0B1F56C4F2BD101218C031A
:100890002046FFF79EFF2046BDE810400021FFF7ED
:1008A00098BF01214C042046FFF79EFF2046BDE87B
:1008B00010400021FFF798BF0121CC042046FFF72C
:1008C00093FF2046BDE810400021FFF78DBF0121B6
:1008D0000C052046FFF788FF2046BDE810400021A8
:1008E000FFF782BF10BD30B585B004460D46208AA3
:1008F0004CF6FF710840E98801432182A1894EF638
:10090000F3100140A8882A8910436A890A431043DA
:10091000A081A08A4FF6FF410840A9890143A18226
:100920006846FFF7E8FE9448844201D1039800E04E
:10093000029800EBC00101EB001029688900B0FBB0
:10094000F1F06423B0FBF3F109010A096FF0180517
:100950006A4300EB8200322202EB0010B0FBF3F09E
:1009600000F00F000843208105B030BD4FF4165150
:10097000016000218180C18001810C22428181813E
:10098000704710B5038A4FF2FF0213400A884C8863
:1009900022438C88C9880C4322431A43028210BD2B
:1009A0000021018041808180C1807047002904D0EE
:1009B000818941F4005181817047818921F400517E
:1009C0008181704710B5C1F3421301F01F0401216A
:1009D000A140012B07D0022B07D014303AB1026896
:1009E0000A43026010BD0C30F8E71030F6E70268E9
:1009F0008A43026010BD002A03D0828A0A438282A1
:100A00007047828A8A4382827047028A22F00F02EC
:100A10000282028A0A4302827047828922F40062BB
:100A2000828182890A4382817047002904D08189AA
:100A300041F0020181817047818921F002018181A9
:100A40007047028A22F020020282028A0A4302824E
:100A50007047002904D0018A41F480410182704727
:100A6000018A21F4804101827047C1F3080181802D
:100A700070478088C0F308007047818941F0010108
:100A800081817047028BD2B20283028B42EA01213C
:100A900001837047028B02F47F420283028B0A4378
:100AA00002837047002904D0818A41F020018182AD
:100AB0007047818A21F0200181827047002904D08B
:100AC000818A41F0100181827047818A21F01001F2
:100AD00081827047002904D0818A41F00801818217
:100AE0007047818A21F0080181827047828A22F052
:100AF00004028282828A0A4382827047002904D0DB
:100B0000818A41F0020181827047818A21F00201CD
:100B1000818270470246002012880A4200D00120DC
:100B20007047C9430180704770B50024C1F3421378
:100B300001F01F05012606FA05F2012B0CD0022B4D
:100B40000DD0838A1340090A8E40008830400BB1D3
:100B500000B10124204670BD83891340F3E7038A66
:100B60001340F0E70A0A01219140C9430180704710
:100B7000004C004000BCFFBF0038014010B586B0FB
:100B8000012144F20400FFF70EFE4FF40070ADF8AF
:100B9000140018208DF8170003208DF816001C4C47
:100BA00005A92046FFF711FC2115ADF8141004210A
:100BB0008DF8171005A92046FFF707FC4FF4E13028
:100BC00001900020ADF80800ADF80A00ADF80C0067
:100BD000ADF810000C20ADF80E000E4C01A9204617
:100BE000FFF781FE01212046FFF7E0FE06B010BDB1
:100BF00070B50446074D80212846FFF78BFF00287B
:100C0000F9D0A1B22846FFF730FF204670BD0000A2
:100C1000000801400038014000F1080141604FF038
:100C2000FF328260C16001610021016070470021D4
:100C30000161704742684A6093688B6093685960AD
:100C4000916008610168491C0160704730B50C680B
:100C5000621C02D000F1080202E0026904E01A46B8
:100C600053681D68A542FAD953684B6099608A6041
:100C7000516008610168491C016030BD0169D0E91B
:100C800001329A60D0E901235A604A68824201D158
:100C900082684A60002202610868401E086070474E
:100CA00070B504460D46002C05D140F21B12F2A18E
:100CB000F7A002F097FC02F0D8F9D4E90F202168E0
:100CC00002FB001161600021A1632168A160E06B5B
:100CD0002268216C401E00FB0121E1604FF0FF30D3
:100CE00084F8440084F8450004F110004DB1FFF78A
:100CF00093FF04F12400FFF78FFF02F0D0F90120E9
:100D000070BD21690029F8D001F02CFB0028F4D037
:100D1000E3494FF080500860BFF34F8FBFF36F8FF0
:100D2000EBE710B5029C002909D02260E063216442
:100D300001212046FFF7B4FF0020A06410BD24600D
:100D4000F4E7F8B505460E461746002D05D14FF4D9
:100D5000C472C9A1CEA002F045FC86B105FB06F025
:100D60004C3002F0BEFA04463CB104F14C023B4662
:100D7000314628460094FFF7D4FF2046F8BD0020F6
:100D8000EEE72DE9F041044617460026A56B226CDC
:100D9000002A10D0C7B1E06802F0EAFBE168206CDD
:100DA000091AE1602268914202D26168081AE06083
:100DB000022F16D017E02068A8B9606801F007FC80
:100DC0000646002060600EE0A06802F0D1FB216CB6
:100DD000A0680844A0606168884204D32068A060CD
:100DE00001E005B16D1E6D1CA5633046BDE8F081C4
:100DF0002DE9F3410F460098846C0026002C05D1A4
:100E000040F6CE129CA1A2A002F0ECFBA06BE16B1D
:100E1000884205D340F6CF1297A19DA002F0E2FBD5
:100E2000A06BE16B88420CD294F945503A46694672
:100E30002046FFF7A6FF0646681C05D06D1C84F807
:100E400045503046BDE8FC81606A0028F9D004F1C5
:100E5000240001F087FA0028F3D00126F1E72DE9FC
:100E6000F041044602F001F994F9455004F12406DA
:100E700013E0A06C38B100212046FFF7B9FF50B154
:100E800001F03EFB07E0606A48B1304601F06AFAC3
:100E900008B101F035FB6D1E6DB2002DE9DC4FF09D
:100EA000FF3684F8456002F0FAF802F0DEF894F9B3
:100EB000445004F1100709E0206948B1384601F0B8
:100EC00051FA08B101F01CFB6D1E6DB2002DF3DC70
:100ED00084F84460BDE8F04102F0E1B810B5044682
:100EE00002F0C3F8A06BE16B884201D1012400E05D
:100EF000002402F0D4F8204610BD2DE9FF4782B04F
:100F000004468A4698460025002C05D140F2D92295
:100F100059A15FA002F066FBBAF1000F07D1206C67
:100F200028B140F2DA2254A159A002F05BFBB8F1DB
:100F3000020F08D1E06B012805D040F2DB224EA160
:100F400053A002F04FFB01F0F7FA38B9049828B12A
:100F500040F2DE2248A14EA002F044FB4FF000090F
:100F60004FF080564E4F02F080F8A06BE16B884244
:100F700006D3B8F1020F03D0049860B37DB333E019
:100F8000424651462046FFF7FCFEA16C51B1414656
:100F90002046FFF72DFFC0B13E60BFF34F8FBFF378
:100FA0006F8F12E0616A51B104F1240001F0DAF9A7
:100FB00058B13E60BFF34F8FBFF36F8F05E020B194
:100FC0003E60BFF34F8FBFF36F8F02F068F80120D0
:100FD00006B0BDE8F08702F062F80020F8E7FFE70E
:100FE000684601F043FA012502F059F800F049FE85
:100FF00002F03BF894F94400401C01D184F844907D
:1010000094F94500401C01D184F8459002F047F85E
:1010100004A9684601F03CFA30B12046FFF71FFFF3
:1010200000F082FD0020D3E72046FFF757FF88B18C
:1010300004F11000049901F039F92046FFF70FFF81
:1010400000F072FD00288ED13E60BFF34F8FBFF3DA
:101050006F8F88E72046FFF702FF00F065FD82E70B
:10106000002807D0002141600160C16000231A46BA
:10107000194642E7704700002E2E5C4672656552A5
:10108000544F535C7372635C71756575652E6300B4
:101090004572726F723A2025732C2025640A000075
:1010A00004ED00E010B5024600210120FFF749FEE3
:1010B00004462046FFF7D4FF204610BD10B5044675
:1010C000002C07D140F24122AFF25401AFF24000B0
:1010D00002F088FA01F02DFA616888420BD1E068CD
:1010E000401EE06028B900231A4619462046FFF743
:1010F00004FF012010BD002010BD10B5044601F012
:10110000B4FFA06B20B1002401F0C9FF204610BD40
:101110000124F9E730B40B46026C002A0CD0C168F8
:101120001144C1604468A14201D30168C160C16833
:1011300030BC184602F01CBA30BC70472DE9FF4F96
:1011400083B004468A469B460026002C07D140F215
:10115000DC42AFF2DC01AFF2C80002F043FABAF1B0
:10116000000F09D1206C38B140F2DD42AFF2F80136
:10117000AFF2E40002F036FA01F0DEF948B9059862
:1011800038B14FF49C62AFF21011AFF2FC0002F0E4
:1011900029FA4FF000094FF08057DFF8488601F038
:1011A00064FFA56B95B3E66851462046FFF7B2FF92
:1011B000BBF1000F13D0E660606A50B104F1240067
:1011C00001F0D0F828B1C8F80070BFF34F8FBFF31B
:1011D0006F8F01F064FF012007B0BDE8F08F6D1E36
:1011E000A563206810B901F044FA60602069002806
:1011F000EFD004F1100001F0B5F80028E9D0C8F8EC
:101200000070BFF34F8FBFF36F8FE2E7FFE70598E2
:1012100008B126B107E001F042FF0020DCE701A899
:1012200001F024F9012601F03AFF00F02AFD01F057
:101230001CFF94F94400401C01D184F8449094F9B7
:101240004500401C01D184F8459001F028FF05A914
:1012500001A801F01DF958B12046FFF700FE00F08B
:1012600063FC2046FFF749FF002898D00020B3E731
:101270002046FFF742FFE0B1206830B901F0F5FEEB
:10128000606801F065F901F00AFF04F12400059996
:1012900001F00CF82046FFF7E2FD00F045FC0028C5
:1012A0007FF47DAFC8F80070BFF34F8FBFF36F8F2F
:1012B00075E72046FFF7D3FD00F036FC6FE770B509
:1012C00004460D46002C07D14FF41E72AFF2582190
:1012D000AFF2442002F086F901F02BF963689842DE
:1012E00004D1E068401CE060012070BD00232A4664
:1012F00019462046FFF722FF0028F6D0E168491C76
:10130000E16070BD70B505460C46002D07D140F276
:10131000BD22AFF29C21AFF2882002F063F9AC420B
:1013200007D940F2BE22AFF2B021AFF29C2002F00A
:1013300059F9022200212846FFF703FD002800D0BA
:10134000846370BD2DE9F0470446894615469846EA
:10135000002C07D140F29F32AFF2E421AFF2D0204F
:1013600002F040F9B9F1000F09D1206C38B14FF407
:101370006872AFF2FC21AFF2E82002F033F9B8F165
:10138000020F0AD1E06B012807D040F2A132AFF280
:101390001831AFF2043002F025F901F00EFF5020B1
:1013A000EFF3118780F31188BFF34F8FBFF36F8F77
:1013B000A06BE16B884206D3B8F1020F03D0002086
:1013C00087F3118805E694F9456042464946204670
:1013D000FFF7D7FC701C04D0761C84F84560012010
:1013E000EEE7A06C012648B141462046FFF700FD1C
:1013F0000028F4D0002DF2D02E60F0E7606A0028BB
:10140000EDD004F1240000F0ADFF0028E7D0002D5E
:10141000E5D02E60E3E72DE9F04104460D46002CAF
:1014200007D140F23C42AFF2B031AFF29C3002F053
:10143000D9F8206C38B14FF48862AFF2C431AFF202
:10144000B03002F0CFF8206848B9606838B140F297
:101450004542AFF2DC31AFF2C83002F0C3F801F020
:10146000ACFE5020EFF3118680F31188BFF34F8F4D
:10147000BFF36F8FA16BE06B884224D994F94500CC
:10148000491CA163411C04D0401C84F84500012084
:101490001AE0A06C012748B100212046FFF7A8FC04
:1014A0000028F4D0002DF2D02F60F0E7606A002809
:1014B000EDD004F1240000F055FF0028E7D0002D06
:1014C000E5D02F60E3E7002086F311888EE42DE954
:1014D000F047044689469046002C07D14FF4B46289
:1014E000AFF26C41AFF2584002F07CF8B9F1000F56
:1014F00009D1206C38B140F2A152AFF28441AFF271
:10150000704002F06FF801F058FE5020EFF31187A1
:1015100080F31188BFF34F8FBFF36F8FA66BF6B1C7
:1015200094F9445049462046FFF7F4FD761EA66321
:10153000681C04D06D1C84F84450012010E0206920
:101540000028FAD004F1100000F00CFF0028F4D0BD
:10155000B8F1000FF1D00120C8F80000EDE700203D
:1015600087F3118835E52DE9F04104460F46002C3C
:1015700007D140F2FC52AFF20051AFF2EC4002F062
:1015800031F84FB9206C38B140F2FD52AFF218512A
:10159000AFF2045002F026F8206C38B940F2FE5247
:1015A000AFF22C51AFF2185002F01CF801F005FE1A
:1015B0005020EFF3118580F31188BFF34F8FBFF3F5
:1015C0006F8FA06B38B1E66839462046FFF7A2FD61
:1015D000E660012000E0002085F3118806E410B5E4
:1015E0000446002C07D140F22F62AFF27451AFF2E3
:1015F000605001F0F7FF01F038FDA46B01F04FFDE2
:10160000204610BD10B50446002C07D140F24162BF
:10161000AFF29C51AFF2885001F0E4FF01F025FDDC
:10162000D4E90E10441A01F03AFD204610BD10B561
:101630000446002C07D140F25162AFF2C451AFF220
:10164000B05001F0CFFFA06B10BD0021664A02EB45
:10165000C1035B68834206D1002042F8310002EBEF
:10166000C101486006E5491C0A29F0D302E510B51E
:101670000446002C07D140F25D62AFF20461AFF284
:10168000F05001F0AFFF2046FFF7DFFF2046BDE836
:10169000104001F08DBE10B50446002C07D140F279
:1016A0009372AFF22C61AFF2186001F09BFFA06B58
:1016B00008B1002010BD012010BD10B50446002C5B
:1016C00007D140F2BA72AFF25061AFF23C6001F064
:1016D00089FFA06BE16B884201D1012010BD002081
:1016E00010BD10B50022404B53F832401CB1521CC3
:1016F0000A2AF9D310BD43F8321003EBC201486047
:1017000010BD10B500240021374A02EBC1035B680D
:10171000834202D152F8314002E0491C0A29F4D335
:10172000204610BD70B504460D46164601F09DFCDE
:1017300094F944304FF000005B1C01D184F8440060
:1017400094F94510491C01D184F8450001F0A7FC2B
:10175000A06B28B93246294604F1240000F0E6FDCA
:101760002046BDE87040FFF77ABB00220421FFF756
:10177000E8BA70B504460D4601F077FCA06C08B1DC
:10178000002405E0A06B08B1002401E0A564012459
:1017900001F085FC204670BD10B50446A06C88425F
:1017A00001D0002010BDA06B08B1002010BD01F0D9
:1017B0005CFC0020A06401F072FC012010BD08B5A3
:1017C000002300930A466946FFF7B8FC009808BD5D
:1017D00008B50021009100226946FFF778FE0098C5
:1017E00008BD000004ED00E09800002070B5002462
:1017F000FC4D04EB840005EB8000FFF70DFA641C40
:10180000202CF6D3F848FFF707FAF7481430FFF713
:1018100003FAF5482830FFF7FFF9F3483C30FFF7AB
:10182000FBF9F1485030FFF7F7F9F048EE49416312
:101830001431816370BD70B5044601F016FCEB4DA8
:10184000A868401CA860286810B1686938B10CE02D
:101850002C60A868012808D1FFF7C8FF05E02868B8
:10186000E16AC06A884200D82C60686A401C6862DD
:10187000E06A01212A69814011432961D94900EBBD
:10188000800001EB8000211DFFF7D4F901F007FC77
:10189000686900280CD02868E16AC06A884207D2CB
:1018A000D3494FF080500860BFF34F8FBFF36F8F65
:1018B00070BD2DE9F0478146DDE908580A9C0E46C7
:1018C0009A46206B521E00EB820020F00707780733
:1018D00005D040F22B32C7A1CCA001F083FE00203E
:1018E0002218315C82F83410315C11B1401C102890
:1018F000F6D3002684F84360202D00D31F25E5622F
:101900006564A664201DFFF792F904F11800FFF743
:101910008EF92461C5F12000A0616462E66484F858
:10192000506052464946384601F041FB2060B8F10C
:10193000000F01D0C8F80040BDE8F0872DE9FF5F37
:101940008146DDE90E788A4616469B46B00001F0D6
:10195000C8FC054628000AD0542001F0C2FC044609
:101960000CB1256304E0284601F022FD00E00024CC
:101970008CB10020CDE90240CDE900785B463246CB
:1019800051464846FFF795FF2046FFF754FF0120D8
:1019900004B0BDE8F09F4FF0FF30F9E79348416B8A
:1019A0000968002905D0416BC968C9684968816226
:1019B00070474FF0FF318162704710B50446206BCD
:1019C00001F0F6FC2046BDE8104001F0F1BC70B516
:1019D000044601F04AFB854D04B92C68201DFFF731
:1019E0004DF958B9E06A7F4A00EB800152F82110A6
:1019F00021B901218140286988432861A06A18B172
:101A000004F11800FFF73AF9686A401C6862286818
:101A1000844208D17448211D3C30FFF70BF96868F7
:101A2000401C686007E0A868401EA8602046FFF7D9
:101A3000C4FFFFF7B3FF01F032FB6869002812D042
:101A4000286884420FD1286B28B140F2654269A111
:101A50006EA001F0C7FD66494FF080500860BFF3EB
:101A60004F8FBFF36F8F70BD2DE9F04100265F4FA0
:101A7000386B002808D0B869401CB861F86900B11B
:101A800001263046BDE8F081FD686D1CFD608DB912
:101A9000786B006828B140F6D91256A15BA001F01E
:101AA000A1FD786BB96B7963B863386A401C386202
:101AB000FFF774FFB86ADFF82C8185420DD3786B8D
:101AC000006838B1786BC068C468606885420ED21F
:101AD000B86202E04FF0FF30B8623868C06A00EBCD
:101AE000800058F820000128C8D90126C6E7201D2B
:101AF000FFF7C4F8A06A18B104F11800FFF7BEF8A8
:101B0000E06A01213A6981401143396100EB8000AC
:101B100008EB8000211DFFF78DF8E06A3968C96A7B
:101B20008842CCD30126CAE72DE9F04100240027E2
:101B30002E4D286B002805D14FF4FD622DA133A056
:101B400001F050FD01F091FA286B401E2863286BCC
:101B5000F0BBA868E0B3DFF89080012608F1280800
:101B60001DE0D8F80C00C46804F11800FFF786F8EF
:101B7000201DFFF783F8E06A2A6906FA00F1114395
:101B80002961184900EB800001EB8000211DFFF75F
:101B900051F8E06A2968C96A884200D3EE61D8F832
:101BA00000000028DDD10CB1FFF7F8FEAC6944B1AC
:101BB000FFF75AFF00B1EE61641E002CF8D100203F
:101BC000A861E86920B1012709493807086000E0E9
:101BD00003E0BFF34F8FBFF36F8F01F060FA384619
:101BE00050E70000E80000206803002014000020F7
:101BF00004ED00E02E2E5C4672656552544F535C36
:101C00007372635C7461736B732E63004572726FE1
:101C1000723A2025732C2025640A00002DE9F0413A
:101C200004460F46FE4EF5683068001DFFF726F8A3
:101C300038B9306890F82C10012088403169814310
:101C40003161601C07D137B13168BDE8F041091D31
:101C5000F448FEF7EFBF2C4430684460AC4206D233
:101C60003168B06B091DBDE8F041FEF7EFBF316888
:101C7000706B091DFEF7EAFFB06A844200D2B462BD
:101C800000E7E748016B491C016370472DE9F0410B
:101C900005460E460024002D07D140F27942AFF2EE
:101CA000AC01AFF2980001F09DFC3EB940F27A42DF
:101CB000AFF2C001AFF2AC0001F094FCD84F386B2A
:101CC00038B140F27B42AFF2D401AFF2C00001F074
:101CD00089FCFFF7D6FFFA682B689919934205D95A
:101CE0008B4208D9914206D9012404E08B4201D8E5
:101CF000914200D9012429601CB1881A0021FFF704
:101D00008DFFFFF711FF002807D1C7494FF0805022
:101D10000860BFF34F8FBFF36F8FB3E610B5044673
:101D20000020002C12D0BE48006B38B140F2CF42E8
:101D3000AFF24011AFF22C1001F054FCFFF7A1FFFD
:101D400000212046FFF76AFFFFF7EEFE002807D1CB
:101D5000B5494FF080500860BFF34F8FBFF36F8FCE
:101D600010BD70B50546002D07D140F2FB42AFF221
:101D70007C11AFF2681001F035FCA94E3068854245
:101D800001D1002070BD01F070F96C6901F087F994
:101D9000706B844202D0B06B844201D1022070BDCE
:101DA000A048844205D1A86A08B1022070BD032072
:101DB00070BD9C481438844202D00CB1012070BD23
:101DC000042070BD10B5044601F04FF90CB99448D9
:101DD0000468E46A01F063F9204610BD10B50446BA
:101DE00001F0EBF95020EFF3118180F31188BFF37C
:101DF0004F8FBFF36F8F0CB989480468E06A81F395
:101E0000118810BD2DE9F04104460D460026202D15
:101E100007D34FF4B062AFF22421AFF2102001F0EB
:101E2000E1FB202D00D31F2501F01FF97C4F04B9E1
:101E30003C68606CA84241D0854208D939688C4220
:101E400009D03968C96AA94205D8012603E0396872
:101E50008C4200D10126D4F82C80404500D1E562A7
:101E60006564A069002802DBC5F12000A0616F4D08
:101E700008EB8801606905EB8101884215D1201DBE
:101E8000FEF7FCFE012120B93A6901FA08F082430D
:101E90003A61E06A3A6981401143396100EB8000A0
:101EA00005EB8000211DFEF7C5FE3EB15E494FF0F7
:101EB00080500860BFF34F8FBFF36F8FBDE8F041D4
:101EC00001F0EDB870B5564D286B002802D0012006
:101ED000E86170BD0020E8612869B0FA80F0C0F1C7
:101EE0001F00524E00EB800456F8240038B940F62B
:101EF000F622AFF20031AFF2EC2001F073FB06EBFB
:101F0000840041684968416000F10802914201D1B2
:101F1000496841604068C068286070BD70B504467B
:101F200001F0A3F83E4D04B92C68201DFEF7A6FE73
:101F300058B9E06A3D4A00EB800152F8211021B9FE
:101F400001218140286988432861A06A18B104F101
:101F50001800FEF793FE211D3248FEF76BFE01F0DC
:101F60009EF8686928B101F080F8FFF717FD01F0CD
:101F700096F82868844213D1686990B1286B38B10B
:101F800040F25762AFF29431AFF2803001F02AFB99
:101F900025494FF080500860BFF34F8FBFF36F8F1C
:101FA00070BD2048A9680068884202D100202860DE
:101FB00070BDBDE8704085E770B500250446002877
:101FC00007D140F28162AFF2D431AFF2C03001F0FC
:101FD00009FB14496069884205D1A06A2839884202
:101FE00001D000B90125284670BD70B5044600280F
:101FF00007D140F2AB62AFF20441AFF2F03001F032
:10200000F1FA002C35D0064D2868844231D001F019
:102010002CF82046FFF7D0FF38B3201D08E0000061
:1020200014000020B803002004ED00E0E8000020C8
:10203000FEF724FEE06A01212A69814011432961EB
:10204000FF4900EB800001EB8000211DFEF7F2FD4F
:10205000E06A2968C96A884207D3FA494FF080507C
:102060000860BFF34F8FBFF36F8FBDE8704001F082
:1020700016B870BD2DE9F04100260446002807D1AE
:1020800040F2E262AFF29441AFF2804001F0AAFA6E
:1020900001F093F85020EFF3118580F31188BFF31E
:1020A0004F8FBFF36F8F2046FFF786FF38B1E64FA3
:1020B000386B40B104F11801E448FEF7BBFD85F32D
:1020C00011883046DEE4E06A3968C96A884200D384
:1020D0000126201DFEF7D2FDE06A01213A69814008
:1020E00011433961D64900EB800001EB8000211DCE
:1020F000FEF7A0FDE3E70020D3490A69012A00D9D1
:1021000001200A68D26A0AB100207047CC4A1268DE
:10211000012A01D90020704708B100207047886A61
:10212000C968401A704770B5C84EC74D14361CE0D8
:10213000FFF7A7FD306820B10024FFF7F5FCA4B934
:1021400001E00124F9E700F090FFF068C468201D69
:10215000FEF794FDA868401EA8606868401E68608D
:1021600000F09DFF2046FFF728FC68680028DFD1BB
:1021700070BDB34D4FF08056B24FB34C40F68C4813
:10218000FFF7D1FF2868012804D93E60BFF34F8FC5
:10219000BFF36F8FFFF7AFFF0228F1D3FFF771FD99
:1021A000A06AE168884206D24246AFF2B851AFF267
:1021B000A45001F017FAFFF79EFF022801D300F0A8
:1021C00095FFFFF7B1FCDBE71CB59F4800242C30DE
:1021D000CDE90040234680229DA19F48FFF7AEFB3A
:1021E000012801D100F0ADFD01280CD0401C1CD10C
:1021F00040F28472AFF20461AFF2F05002B0BDE879
:10220000104001F0EFB9502080F31188BFF34F8FD9
:10221000BFF36F8F8C484FF0FF3181620121416124
:10222000C460BDE81C4000F0E0BE1CBD502080F33F
:102230001188BFF34F8FBFF36F8F83490020486130
:1022400000F007BF8048C068704710B500F0B5FFC8
:102250007D48C06810BD7C488068704710B5002874
:1022600002D004461CB10AE077480468FAE740F659
:102270008C02AFF28061AFF26C6001F0B3F904F14F
:10228000340010BD70B504466F4DE868A96A20445B
:10229000884207D940F67112AFF2A861AFF294609C
:1022A00001F0A0F9E8682044E86070BD70B504460C
:1022B0000D46002C07D140F60632AFF2C861AFF2EE
:1022C000B46001F08FF96048016820461831FEF7CC
:1022D000BDFC2846BDE8704001219FE42DE9F04196
:1022E00005460E461746002D07D140F61732AFF2CD
:1022F000FC61AFF2E86001F075F9534C206B38B91E
:1023000040F61B32AFF21471AFF2007001F06AF9BF
:10231000216846F000408861216828461831FEF7A0
:1023200089FC3846BDE8F041012177E470B50646E6
:102330000D461446002E07D140F63132AFF24C71F3
:10234000AFF2387001F04EF93F480168304618315D
:10235000FEF770FC0CB14FF0FF3521462846BDE872
:1023600070405BE42DE9F041C068C468002C07D1DF
:1023700040F66132AFF28471AFF2707001F032F961
:1023800004F118000746FEF779FC2F4D2A6B012651
:102390005AB139462D48FEF74DFCE06A2968C96AF2
:1023A000884214D90124EE6112E0201DFEF766FC7C
:1023B000E06A2A6906FA00F111432961204900EB1D
:1023C000800001EB8000211DFEF734FCE5E70024CE
:1023D000FFF7E4FA204603E470B506460C461A4DB2
:1023E000286B002807D140F69932AFF2F871AFF2AE
:1023F000E47001F0F7F844F000403060F4683CB954
:1024000040F6A132AFF61401AFF6000001F0EAF891
:102410003046FEF733FC201DFEF730FCE06A012653
:102420002A6906FA00F111432961054900EB800091
:1024300001EB8000211DFEF7FDFBE06A29680DE03D
:10244000E800002004ED00E01400002090030020CC
:1024500049444C450000000073210008C96A8842C5
:1024600002D90120EE6170BD002070BD10B5044698
:10247000002C07D140F6C132AFF68801AFF67400E8
:1024800001F0B0F8FE48016A2160C068606010BDCC
:1024900070B504460D46002C07D140F6CB32AFF69E
:1024A000AC01AFF6980001F09DF83DB940F6CC3292
:1024B000AFF6C001AFF6AC0001F094F800F0D5FD26
:1024C000EF4AD06829684B1C08D02368126A9342EF
:1024D00006D06268824203D801240DE000240BE09C
:1024E0006268801A884206D2081A28602046FFF7E0
:1024F000BDFF002400E0012400F0D1FD204670BDA6
:10250000DF490120C86170470120DE4909680029C0
:1025100001D000207047DA49CA690AB1002070472B
:10252000D84A896828321268491E8A42F7D10220A7
:102530007047D34800687047D1484169002903D0EB
:10254000006B18B1002070470120704702207047CF
:1025500070B50446002839D0C94DE06A2968C96AB7
:10256000884233D2A069002804DB2868C06AC0F121
:102570002000A061E06AC44E00EB8000616906EBB8
:10258000800081421FD1201DFEF778FB012150B948
:10259000E06A00EB800256F8222022B92A6901FA8B
:1025A00000F082432A612868C06AE0622A6981409B
:1025B0001143296100EB800006EB8000211DBDE87E
:1025C0007040FEF737BB2868C06AE06270BD70B526
:1025D00004460026002840D0A94D2868844207D030
:1025E00040F6C762AFF6F411AFF6E01000F0FAFF64
:1025F000A06C38B940F6C962AFF60821AFF6F41006
:1026000000F0F0FFA06C401EA064626CE16A914291
:1026100023D010BB201DFEF731FB9B4A012150B98E
:10262000E06A00EB800352F8233023B92B6901FAEA
:1026300000F083432B61606CE062C0F12000A06178
:10264000E06A2B6981401943296100EB800002EBAD
:102650008000211DFEF7EEFA0126304670BD884944
:10266000086880690A680968D26AC2F120028A6132
:10267000704783490868002803D00868826C521CA0
:1026800082640868704770B506460C4600F0EDFCA1
:102690007B4D2868C06C80B92A68012082F8500000
:1026A0005CB101212046FFF7B9FA78494FF080501C
:1026B0000860BFF34F8FBFF36F8F00F0F0FC00F0A6
:1026C000D4FC2868C46C002034B116B12968C864F1
:1026D00002E02A68611ED164296881F8500000F088
:1026E000DEFC204670BD2DE9F04781460F461646B8
:1026F000984600F0BAFC624D286890F85000022815
:1027000017D02C68E06C20EA0900E06429680120F9
:1027100081F85000B8F1000F0BD001214046FFF7BF
:102720007DFA5A494FF080500860BFF34F8FBFF3D6
:102730006F8F00F0B4FC00F098FC16B12868C06CF4
:102740003060286890F8500001280DD02868C16CCE
:10275000B943C16401242968002081F8500000F0C9
:102760009EFC2046BDE8F0870024F4E72DE9F04107
:1027700004460D4690461F460126002C07D141F223
:10278000FD02AFF69031AFF67C3000F02BFF00F089
:102790006CFC0FB1E06C386094F85000022184F8B2
:1027A0005010B8F1050F13D2DFE808F01203070B41
:1027B0000D00E16C2943E1640AE0E16C491CE1642D
:1027C00006E0E56404E0022801D0E56400E00026AC
:1027D00001282AD1201DFEF751FA294DE06A012176
:1027E0002A69814011432961274900EB800001EBF0
:1027F0008000211DFEF71EFAA06A38B141F23512A1
:10280000AFF61041AFF6FC3000F0ECFEFFF7C6F873
:10281000E06A2968C96A884207D91C494FF080508C
:102820000860BFF34F8FBFF36F8F00F038FC304666
:1028300048E42DE9F0470446DDF820800D46914636
:102840009A460127002C07D141F26812AFF65C418D
:10285000AFF6484000F0C6FE00F0AFFC5020EFF3AA
:10286000118680F31188BFF34F8FBFF36F8FBAF1DA
:10287000000F02D0E06CCAF8000094F8500007E0A6
:102880001400002090030020E800002004ED00E088
:10289000022184F85010B9F1050F13D2DFE809F0D6
:1028A0001203070B0D00E16C2943E1640AE0E16CBF
:1028B000491CE16406E0E56404E0022801D0E56417
:1028C00000E00027012832D1A06A38B141F2AF12EE
:1028D000AFF6E041AFF6CC4000F084FE4D4D286BE2
:1028E0004FF0010978B104F118014B48FEF7A2F945
:1028F000E06A2968C96A884219D9B8F1000F14D072
:10290000C8F8009013E0201DFEF7B8F9E06A2A69C4
:1029100009FA00F11143296100EB80013F4800EB07
:102920008100211DFEF786F9E2E7C5F81C9086F3C9
:102930001188384616E72DE9F04104468846002CF8
:1029400007D141F2E312AFF65451AFF6405000F018
:1029500049FE00F032FC5020EFF3118780F311881C
:10296000BFF34F8FBFF36F8F94F85000022184F8AC
:102970005010E16C491CE164012830D1A06A38B1E3
:1029800041F20922AFF69451AFF6805000F02AFED2
:10299000204D286B012678B104F118011E48FEF77E
:1029A00049F9E06A2968C96A884218D9B8F1000F64
:1029B00014D0C8F8006012E0201DFEF75FF9E06A4D
:1029C0002A6906FA00F111432961144900EB8000DD
:1029D00001EB8000211DFEF72DF9E2E7EE6187F3A0
:1029E0001188F8E410B500280BD0044600F03DFB38
:1029F00094F85000022807D0002400F050FB204635
:102A000010BD04480468F1E7002084F85000012458
:102A1000F3E700001400002090030020E8000020ED
:102A200070B5002441600061F74D91420AD8D11A77
:102A30008269914201D301240EE0011D2869FEF74D
:102A400005F909E09A4203D2994201D3012403E037
:102A5000011DE868FEF7FAF8204670BD2DE9FF4732
:102A60000546DDF830A00E46904699460027002D19
:102A700005D14FF4D372E5A1EBA000F0B3FDE24C19
:102A80002068F8B10096CDF804800295062E13DA7E
:102A9000FFF752FD022807D000231A466946206836
:102AA000FEF72BFA07460DE00023524669462068E0
:102AB000FEF723FA074605E000234A466946FEF77B
:102AC00041FC074604B03846BDE8F087F8B5CE4E65
:102AD00025E0C0680568C468201DFEF7CFF8616A6C
:102AE00020468847E069012819D1A0692844A842F6
:102AF00006D960602461211DF068FEF7A7F80EE09A
:102B000000200346014600902A462046FFF7A6FF14
:102B100028B940F29232BDA1C3A000F063FDF06875
:102B200001680029D5D1F0683169F1603061F8BDE4
:102B300070B50546FFF786FB0446B34EB068844285
:102B400004D2FFF7C3FF0120286001E000202860C5
:102B5000B460204670BD70B586B0AB4E53E00298AD
:102B6000002803DADDE90320059990470298002840
:102B700049DB049C606910B1201DFEF77FF801A8B5
:102B8000FFF7D6FF054602980A283CD2DFE800F09E
:102B90000505053B273805053B270398A169034632
:102BA00001442A462046FFF73BFF00282BD0616AEC
:102BB00020468847E069012825D10020009003982D
:102BC000A1690023421819462046FFF747FFD0B9F4
:102BD00040F221328DA194A000F004FD13E003988F
:102BE000A06128B94FF44E7288A18FA000F0FAFCC2
:102BF000A0692B4641192A462046FFF711FF02E043
:102C0000204600F0D5FB00231A4602A93068FEF7E3
:102C100095FA0028A3D106B070BDF8B505460E465A
:102C20007948C068C068C468201DFEF727F8E069CD
:102C3000012816D1A0692B46411932462046FFF7DC
:102C4000EFFE70B100200346014600902A46204660
:102C5000FFF704FF28B94FF402726CA172A000F0D4
:102C6000C1FC616A01B02046BDE8F0400847F8B5F4
:102C700006460D46FFF705F86846FFF759FF04467C
:102C8000009810B1FEF750FFF8BD45B9A64206D82E
:102C9000FEF74AFF21463046FFF7BFFFF8BD5A480E
:102CA0001DB10169096891B10025311B2A460068F0
:102CB000FEF738FDFEF738FF0028EFD15E494FF0F0
:102CC00080500860BFF34F8FBFF36F8FF8BD0125B1
:102CD000EBE74D49CA681168002904D00021016062
:102CE00019B1002070470121F9E7D06800687047EA
:102CF00008B56846FFF7EDFF0099FFF7B8FFFFF74B
:102D00002AFFF6E710B500F0B0F93F4C2068A0B9F3
:102D10004A48FDF781FF49481430FDF77DFF4748D9
:102D2000E06014302061002210210A20FEF709F82B
:102D3000206010B142A1FEF7D4FCBDE8104000F0C5
:102D4000AEB91CB50024FFF7DDFF2F48006860B165
:102D50002D481F21001DCDE9001000234FF4807283
:102D600039A13B48FEF7EAFD04462CB940F2331284
:102D700026A12DA000F036FC20461CBD2DE9F04711
:102D80000646DDE908940D4617469846002D05D104
:102D90004FF4C6721DA124A000F024FC002C0DD01D
:102DA000FFF7B0FF2660A561E761C4F82080C4F892
:102DB0002490201DBDE8F047FDF739BF84E62DE9DA
:102DC000FC4706460A9D0F4690469946282000F08B
:102DD00088FA04463CB1CDE900544B464246394698
:102DE0003046FFF7CBFF2046BDE8FC8710B5064C08
:102DF0006068002805D14FF4E87204A10AA000F031
:102E0000F1FB606810BD0000500000202E2E5C46D3
:102E100072656552544F535C7372635C74696D657F
:102E200072732E63000000004572726F723A2025A3
:102E3000732C2025640A000004ED00E0CC03002080
:102E4000546D725100000000546D7220537663007F
:102E5000F12C000810B50446002807D140F2D91221
:102E6000AFF25801AFF2400000F0BCFBA069C9E727
:102E700010B50446002807D140F2E312AFF2740106
:102E8000AFF25C0000F0AEFB6068BBE710B5044633
:102E9000002807D140F2ED12AFF29001AFF27800B6
:102EA00000F0A0FB2068ADE710B50446002807D16C
:102EB00040F2DA32AFF2AC01AFF2940000F092FBD4
:102EC00000F0D3F8606908B1012400E0002400F0AC
:102ED000E6F8204696E710B50446002807D140F2F0
:102EE000EF32AFF2D801AFF2C00000F07BFB00F090
:102EF000BCF8246A00F0D3F8204683E770B50D468D
:102F00000446002807D140F2FF32AFF20011AFF2C1
:102F1000E80000F067FB00F0A8F82562BDE870400B
:102F200000F0BDB87FB51D466FF00104009401901C
:102F300002910392144800232A4669460068FEF76E
:102F400001FA04B070BD2DE9FF4104460D46164656
:102F500098460D4F3A68002A07D140F22B42AFF253
:102F60005411AFF23C1000F03DFB4FF0FF320092E5
:102F70000194029503960023424669463868FDF79E
:102F8000BCFF04B0BDE8F081500000209D484068BF
:102F9000401C04D0F5229CA1A5A000F023FB5020EA
:102FA00080F31188BFF34F8FBFF36F8FFEE7203898
:102FB0004FF08073C36121F001018161A04941613B
:102FC00040F8202970478F489E4981606FF07F420A
:102FD000B2FBF1F1C1602D2101619A494FF0E0206F
:102FE000491E41610721016170471CB59649087867
:102FF0000190FF200870087800909DF80000814B38
:1030000000F0500018700720586106E05869401E13
:1030100058619DF80000400000909DF800000006F7
:10302000F4D4187D000200F4E06058610198087043
:103030008648016841F470010160016841F0704107
:103040000160FFF7C0FF00205860FDF78DF80020F9
:103050001CBD6C484068B0F57A7F05D040F26B1219
:1030600069A173A000F0BEBA7047502080F31188A8
:10307000BFF34F8FBFF36F8F62494868401C4860B1
:1030800001280BD171481C38006810F0FF0F05D0E3
:1030900040F27B125CA166A000F0A4BA704710B5A4
:1030A000584C6068002805D14FF4C17256A160A049
:1030B00000F098FA6068401E6060002801D180F33B
:1030C000118810BD10B5502080F31188BFF34F8FC9
:1030D000BFF36F8FFEF7C8FC20B15C494FF0805002
:1030E0001C390860002080F3118810BD2DE9F041E3
:1030F0000446444FF868844200D904464FF0E02665
:10310000306920F001003061B169BA68601E02FBCD
:1031100000153869854200D92D1A72B6BFF34F8F5A
:10312000BFF36F8FFFF7F0F908B375610022B2614A
:10313000306940F00100306124B1BFF34F8F30BFE0
:10314000BFF36F8F306920F00101316162B6C003B7
:1031500019D5B069B968281A081A401E3B69984207
:1031600001D3884200D9481E7061641E15E0B06921
:103170007061306940F001003061B868401E7061D4
:1031800062B6BDE8F081B868B1694443611AB1FB29
:10319000F0F4631C4343581A7061B261FFF765FF96
:1031A000306940F0010030612046FFF76BF8B868E5
:1031B000401E7061BDE8F04171E710B5FDF70AF8F7
:1031C000104C10280CD300F1E02090F8F003217887
:1031D000884205D240F2A9220BA115A000F002FA04
:1031E0001A4814380068616900F4E060884207D921
:1031F000BDE8104040F2B92203A10DA000F0F2B9E1
:1032000010BD0000640000202E2E5C4672656552E1
:10321000544F535C706F72745C525644535C41520D
:103220004D5F434D335C706F72742E63000000007D
:103230004572726F723A2025732C2025640A0000B3
:103240008D2F00084019010000E400E020ED00E0AF
:1032500030B5744900E011460A688242FBD34B68DE
:103260005C18844203D140681844486008460D68E1
:1032700044682318AB420DD16A4B103B1B689A423D
:1032800006D05268224442600A681268026002E076
:10329000036000E00260814200D0086030BD4FF45E
:1032A00020516148420706D0C01D20F007005E494A
:1032B000411AC1F520515B4A10600023536001445C
:1032C000083921F00701103A11604B600B600B1AAE
:1032D000436001604068906050604FF00040D060F3
:1032E00070472DE9F04105460026FEF7CAFC4D4F18
:1032F000103F386808B9FFF7D2FFF86805424AD195
:1033000075B1083568070BD005F00700C0F108005B
:103310000544680704D0BF2244A14DA000F062F923
:10332000002D38D07868854235D83E490846046873
:1033300001E0214604466068A84202D220680028C5
:10334000F7D13868844226D00E68083620680860B5
:103350006068401B102811D904EB05085FEA48702B
:1033600004D0EC2231A13AA000F03CF96068401B87
:10337000C8F8040065604046FFF76AFF6168786836
:10338000401A7860BA68904200D2B860F868014389
:10339000616000202060FEF7C7FB700705D04FF486
:1033A000967222A12AA000F01DF93046BDE8F081F6
:1033B00070B500282BD0083804461A4D6068103DBF
:1033C000E968084205D14FF4A07218A120A000F0CE
:1033D00009F9206828B140F2411214A11CA000F0A4
:1033E00001F96068E968084211D02268002A0ED10C
:1033F00088436060FEF745FC60686968084468605F
:103400002046FFF725FFBDE87040FEF78DBB70BD7D
:103410000448103840687047024810388068704788
:10342000704700008C000020F40300202E2E5C4624
:1034300072656552544F535C706F72745C4D656D6C
:103440004D616E675C686561705F342E63000000DB
:103450004572726F723A2025732C2025640A000091
:103460004FF47A742046FEF759FCFBE74FF47A7468
:103470001CA000F0B7F82046FEF750FC1BA000F09F
:10348000B1F82046FEF74AFCF2E71CB5FCF713FF43
:10349000FDF774FB17A000F0A5F818A000F0A2F843
:1034A000002502242B46802216A1AFF23F00CDE971
:1034B0000045FEF743FA012802D015A000F092F86B
:1034C0000023802218A1AFF26700CDE90045FEF786
:1034D00035FA18A000F086F8FEF776FE19A000F085
:1034E00081F8FEE74C454431310A00004C45443236
:1034F0000A00000048656C6C6F310A0048656C6C0E
:103500006F320A005052494E5446205461736B008A
:103510005461736B206372656174696F6E206661BC
:10352000696C6564210A00004C4544205461736B4A
:1035300000000000BFAACABCC6F4D3C3B5F7B6C822
:10354000C6F00A00C6F4D3C3B5F7B6C8BAF30A008A
:103550007047FEE7FEE7FEE7FEE7704710B5FEF7AF
:10356000EBFF012803D0BDE81040FFF7ABBD10BD55
:1035700040EA01039B0703D009E008C9121F08C0F5
:10358000042AFAD203E011F8013B00F8013B521E75
:10359000F9D2704730B50B460146002020220124A5
:1035A00009E021FA02F59D4205D303FA02F5491B11
:1035B00004FA02F52844151EA2F10102F1DC30BD27
:1035C000064C074D06E0E06840F0010394E8070070
:1035D00098471034AC42F6D3FCF7AEFDDC37000858
:1035E000FC3700080FB4054B10B503A9044A029834
:1035F00000F018F810BC5DF814FB0000F10B000897
:103600009400002002E008C8121F08C1002AFAD165
:1036100070477047002001E001C1121F002AFBD152
:10362000704700002DE9FF4F8BB09A460F460546C4
:10363000002606E025280BD052460D9990476D1CB8
:10364000761C28780028F5D10FB03046BDE8F08F01
:103650000024A0460122604900E0044315F8013F20
:10366000203B02FA03F00842F7D128782E2817D120
:1036700015F8010F44F004042A280ED06FF02F0231
:103680002878A0F1300109290AD808EB880102EB5B
:10369000410100EB01086D1CF2E757F8048B6D1C2B
:1036A000287869283ED006DC0028CDD063280BD0CE
:1036B000642804D136E0732810D075284BD05246C8
:1036C0000D999047761C85E017F8040B8DF80000E3
:1036D00000208DF80100E946012003E057F8049B23
:1036E0004FF0FF3061074FF0000401D40AE0641C82
:1036F00044450DDA8442FADB19F804100029F6D1AA
:1037000006E0641C8442FCDB19F804100029F8D19F
:10371000264404E019F8010B52460D999047641EA7
:10372000F8D257E001CF4FF00A0B002802DA4042EE
:103730002D2102E0210504D52B218DF82410012133
:1037400003E0E10705D02021F7E70DF120090891FA
:103750000CE00021F9E701CF4FF00A0BF9E75946D9
:10376000FFF718FF01F1300209F8012D0028F6D10A
:10377000ADEB090000F1200B600701D44FF0010808
:10378000D84502DDA8EB0B0000E0002080460024B5
:1037900006E009A85246005D0D999047641C761C0E
:1037A00008988442F5DB04E0302052460D9990479A
:1037B000761CB8F10001A8F10108F5DC05E019F864
:1037C000010B52460D999047761CBBF10001ABF1FD
:1037D000010BF4DC6D1C34E709280100FC370008FC
:1037E000000000209800000004360008943800080B
:1037F000980000206031000014360008020406081A
:103800000000000001020304010203040607080986
:1038100000000000000000000000000000000000A8
:103820000000000000000000000000000000000098
:103830000000000000000000000000000000000088
:103840000000000000000000000000000000000078
:103850000000000000000000000000000000000068
:1038600000000000AAAAAAAA0000000000000000B0
:103870000000000000000000000000000000000048
:103880000000000000000000000000000000000038
:043890000000000034
:04000005080001DF0F
:00000001FF
